:02000000D12A03
:10000600B62A83120313F101F2018030F00080302A
:1000160072067002031D11287108643C031C2E2809
:1000260083120313013086000A30FC00F230FD0013
:10003600FD0B1B28FC0B1B28000086010A30FC0068
:10004600F230FD00FD0B2528FC0B25280000F10AE7
:100056000319F20A08281A30FC00F830FD00FD0BDF
:100066003228FC0B32280000F101F2018030F0004A
:10007600803072067002031D42287108643C031C1E
:100086005F2883120313013086000930FC00D43048
:10009600FD00FD0B4C28FC0B4C28000086010930A6
:1000A600FC00D430FD00FD0B5628FC0B5628000042
:1000B600F10A0319F20A39281A30FC00F830FD005B
:1000C600FD0B6328FC0B63280000F101F201803070
:1000D600F000803072067002031D73287108643CBC
:1000E600031C8E2883120313013086000730FC00A0
:1000F6009F30FD00FD0B7D28FC0B7D288601073017
:10010600FC009F30FD00FD0B8628FC0B8628F10ABB
:100116000319F20A6A28D02AF101F2018030F000B0
:10012600803072067002031D9A287108323C031C47
:10013600B92883120313013086000830FC006F30A3
:10014600FD00FD0BA428FC0BA4280000000086017E
:100156000830FC006F30FD00FD0BAF28FC0BAF280C
:1001660000000000F10A0319F20A91280230FB0090
:100176000430FC00BA30FD00FD0BBF28FC0BBF2885
:10018600FB0BBF280000F101F2018030F000803047
:1001960072067002031DD1287108643C031CEC280A
:1001A60083120313013086000730FC009F30FD00E8
:1001B600FD0BDB28FC0BDB2886010730FC009F309B
:1001C600FD00FD0BE428FC0BE428F10A0319F20AF2
:1001D600C8280230FB000430FC00BA30FD00FD0BDD
:1001E600F228FC0BF228FB0BF2280000D02AF101C2
:1001F600F2018030F000803072067002031D05297E
:100206007108323C031C2429831203130130860033
:100216000830FC006F30FD00FD0B0F29FC0B0F2989
:100226000000000086010830FC006F30FD00FD0B69
:100236001A29FC0B1A2900000000F10A0319F20A18
:10024600FC289C30FC00D730FD00FD0B2829FC0B58
:100256002829F101F2018030F00080307206700228
:10026600031D37297108643C031C522983120313AA
:10027600013086000730FC009F30FD00FD0B412950
:10028600FC0B412986010730FC009F30FD00FD0B69
:100296004A29FC0B4A29F10A0319F20A2E299C3035
:1002A600FC00D730FD00FD0B5629FC0B5629D02A41
:1002B600F101F2018030F000803072067002031DF9
:1002C60066297108323C031C852983120313013009
:1002D60086000830FC006F30FD00FD0B7029FC0B1A
:1002E60070290000000086010830FC006F30FD0018
:1002F600FD0B7B29FC0B7B2900000000F10A03198A
:10030600F20A5D293430FC00F130FD00FD0B89292D
:10031600FC0B892900000000F101F2018030F00099
:10032600803072067002031D9A297108643C031C12
:10033600B52983120313013086000730FC009F3075
:10034600FD00FD0BA429FC0BA42986010730FC0047
:100356009F30FD00FD0BAD29FC0BAD29F10A0319F9
:10036600F20A91293430FC00F130FD00FD0BB92969
:10037600FC0BB92900000000F101F2018030F00009
:10038600803072067002031DCA297108193C031CCD
:10039600E72983120313013086000A30FC00F2308D
:1003A600FD00FD0BD429FC0BD429000086010A3080
:1003B600FC00F230FD00FD0BDE29FC0BDE290000FF
:1003C600F10A0319F20AC1291A30FC00F830FD00BF
:1003D600FD0BEB29FC0BEB290000F101F20180304B
:1003E600F000803072067002031DFB297108193C6B
:1003F600031C162A83120313013086000730FC0003
:100406009F30FD00FD0B052AFC0B052A86010730EF
:10041600FC009F30FD00FD0B0E2AFC0B0E2AF10A94
:100426000319F20AF2291A30FC00F830FD00FD0B20
:100436001A2AFC0B1A2A0000D02AF101F201803098
:10044600F000803072067002031D2B2A7108193CD9
:10045600031C462A83120313013086000730FC0072
:100466009F30FD00FD0B352AFC0B352A860107302F
:10047600FC009F30FD00FD0B3E2AFC0B3E2AF10AD4
:100486000319F20A222A1A30FC00F830FD00FD0B8F
:100496004A2AFC0B4A2A0000F101F2018030F000E2
:1004A600803072067002031D5A2A71084B3C031CE9
:1004B600792A83120313013086000830FC00E330EA
:1004C600FD00FD0B642AFC0B642A00000000860177
:1004D6000830FC00E330FD00FD0B6F2AFC0B6F2A91
:1004E60000000000F10A0319F20A512A1A30FC0032
:1004F600F830FD00FD0B7D2AFC0B7D2A0000F10182
:10050600F2018030F000803072067002031D8D2AE1
:100516007108963C031CAC2A831203130130860033
:100526000830FC006F30FD00FD0B972AFC0B972A64
:100536000000000086010830FC006F30FD00FD0B56
:10054600A22AFC0BA22A00000000F10A0319F20AF3
:10055600842A1A30FC00F830FD00FD0BB02AFC0B93
:10056600B02A0000D02A831203132408013A031983
:1005760004282408023A03198F282408033A031989
:10058600FA282408043A03195B292408053A0319B2
:0C059600BF292408063A0319202A080097
:1005A2008312031386018316860187150516A03070
:1005B2009300803094003630831294000130831609
:1005C200910083128C1DFB2A1308A30083161418B2
:1005D200EB2AE72A24301405F1007108003A031DC2
:1005E200F82A83121308A2002208A400032083120F
:0805F20003138C11E22AFC2A1C
:04400E00F22F000786
:00000001FF
